:020000040800F2
:10000000900600206D0100087501000877010008C6
:10001000790100087B0100087D0100080000000054
:100020000000000000000000000000007F01000848
:10003000810100080000000083010008110D000884
:100040008701000887010008870100088701000870
:100050008701000887010008870100088701000860
:100060008701000887010008870100088701000850
:100070008701000887010008870100088701000840
:100080008701000887010008870100088701000830
:100090008701000887010008870100088701000820
:1000A0008701000887010008870100088701000810
:1000B0008701000887010008870100088701000800
:1000C00087010008870100088701000887010008F0
:1000D00087010008870100088701000887010008E0
:1000E00087010008870100088701000800F002F876
:1000F00000F02CF80AA090E8000C82448344AAF196
:100100000107DA4501D100F021F8AFF2090EBAE893
:100110000F0013F0010F18BFFB1A43F0010318473B
:10012000700D0000800D0000002300240025002633
:10013000103A28BF78C1FBD8520728BF30C148BF4A
:100140000B6070471FB51FBD10B510BD00F058F80B
:100150001146FFF7F7FF00F077FE00F076F803B4E2
:10016000FFF7F2FF03BC00F07DF80000094880476C
:1001700009480047FEE7FEE7FEE7FEE7FEE7FEE789
:10018000FEE7FEE7FEE7FEE704480549054A064BA1
:1001900070470000F10D0008ED00000890000020FD
:1001A0009006002090020020900200204FF00002F4
:1001B00000B5134694469646203922BFA0E80C505D
:1001C000A0E80C50B1F12001BFF4F7AF090728BF38
:1001D000A0E80C5048BF0CC05DF804EB890028BFB4
:1001E00040F8042B08BF704748BF20F8022B11F0DD
:1001F000804F18BF00F8012B704770477047704759
:10020000754600F02BF8AE4605006946534620F0CF
:100210000700854618B020B5FFF7B6FFBDE82040BF
:100220004FF000064FF000074FF000084FF0000BB2
:10023000AC46ACE8C009ACE8C009ACE8C009ACE821
:10024000C00921F007018D46704710B50446AFF391
:1002500000802046BDE81040FFF781BF004870478E
:100260000000002001491820ABBEFEE72600020076
:1002700070470000A0F13001C9B26FF036020A29C0
:1002800038BF6FF02F021044C0B2704710B54FF660
:1002900000447720C0F6000400F0ACFC04F1140028
:1002A0006FF00E0100F030FA04F134006FF00C0131
:1002B00000F02AFA00F014F840F27000C2F20000D8
:1002C0000168012903D10021016000F087F920466F
:1002D0004FF0FF3100F018FA00F056FA10BD0000A0
:1002E0004EF6085041F20041CEF20000C0F6000187
:1002F000016070472DE9F0418AB001AC204623210E
:10030000FFF754FF0520212100F0EEFA742000F0E1
:1003100071FC00F03FFC36281CBF0AB0BDE8F0813C
:1003200041F20045C0F600050FF2380808E000BFB2
:100330002046294600F018F8404600F06BFC1035C6
:10034000002601E0FFF7A2FFF0B22718384600F0C0
:100350002BFC0128F8D138780428F3D00A28E7D0FC
:100360000136F1E76F6B00002DE9F04784B0884655
:100370000021041F6FF00105EA46CDE90211CDE925
:10038000001100BF14F8040FFFF774FF6178814675
:100390000846FFF76FFFA17806460846FFF76AFF99
:1003A000E17807460846FFF765FF46EA091141EA8A
:1003B000073141EA00200AEB050102350E2D488085
:1003C000E0D169464046082200F00CFA04B0BDE8CE
:1003D000F087000070B54FF63444C0F600042046A4
:1003E00000F0CEFA054604F1080000F0C9FA15F154
:1003F0000D0114D1064600F02BF8B04205D17A2049
:1004000000F0F8FB6FF00D0070BD7B2000F0F2FBF8
:1004100020466FF00B016FF00B0500F075F92846D0
:1004200070BD000080B582B0002001904FF61840EA
:10043000C0F6000000F0A4FA014641F20040C0F608
:10044000000001AA00F0B2F9019802B080BD0000DE
:1004500080B582B0002001904FF63840C0F6000011
:1004600000F08EFA014648F60000C0F6000001AA2E
:1004700000F09CF9019802B080BD000080B500F04A
:1004800089FB102808BF00F085FB012080BD00001B
:10049000B0B54FF61445C0F60005284600F070FAD6
:1004A000044605F1200000F06BFA611C014618BFFC
:1004B00014F10C0008D111F10C004FF001001CBF29
:1004C00011F101010020B0BD0020B0BD80B54FF694
:1004D0000040C0F6000000F053FA28B1013018BF08
:1004E00080BD00F005F880BD00F0BAF880BD0000C6
:1004F00070B54FF61444C0F60004204600F040FAF0
:10050000064604F1080000F03BFA711C1CBF0546CA
:1005100016F10C0009D1FFF75DFF411C18BF10F167
:100520000C010FD100F0A2F870BD16F10F00FBD145
:10053000FFF778FFA8420DD1782000F05BFB00F0B8
:1005400087F870BD0E3018BF70BD00F00FF800F0D6
:100550007FF870BD792000F04DFB20466FF00B0155
:1005600000F0D2F800F010F970BD00002DE9F04164
:100570004FF61444C0F6000404F1240000F000FA21
:10058000064604F1280000F0FBF9804605202121F1
:1005900000F0AAF966B148F60007C0F60007354634
:1005A000A7F5E84057F8041B00F090F9013DF7D19A
:1005B000201D314600F0A8F804F10800414600F083
:1005C000A3F820466FF00E0100F09EF804F1200021
:1005D0006FF00C0100F098F8BDE8F0812DE9F041D2
:1005E0004FF61444C0F60004201D00F0C9F9064679
:1005F00004F1080000F0C4F9804622203E2100F0FA
:1006000073F96EB141F20047C0F60007354600BFEE
:1006100007F5E84057F8041B00F058F9013DF7D101
:1006200004F12400314600F06FF804F1280041463F
:1006300000F06AF804F120006FF00C0100F064F89B
:1006400020466FF00E0100F05FF8BDE8F081000079
:1006500080B541F20440C0F600000068804780BDCC
:1006600080B500F00FF8FFF745FE80BD80B54FF66E
:100670000040C0F60000002100F046F800F084F8C9
:1006800080BD0000F0B583B04FF614440020C0F6E2
:1006900000048DF80800CDE90000FFF7F9FE0546DB
:1006A000204600F06DF9012D054607D1FFF7E6FE63
:1006B00040F27000C2F2000001210170502000F0F1
:1006C00099FA4FF0FF366F4600F064FAB919013617
:1006D000082E4870F8D1DDF80170DDF8056015F1DD
:1006E0000F0008BFFFF77AFF9DF80000342808D1FB
:1006F000201D394600F008F804F10800314600F0EA
:1007000003F803B0F0BD00002DE9F043A9B00546A1
:100710004FF600408846C0F600004FF6FC710027F7
:10072000C0F2030115AC0DF1040900F14C0203E025
:10073000904200F104000DD285421CBF036813F102
:100740000103F5D001EA8703E0500668013749F854
:100750000360EDE73F2000F0D7F838040CD0BFB2BB
:10076000043CA9F1040600BF54F8040F56F8041F16
:1007700000F0ACF8013FF7D12846414600F0A6F85A
:1007800029B0BDE8F083000043F20000C4F200008D
:10079000C16821F00201C16045F25551016001219B
:1007A00041604CF6CC4101607047000080B50023E9
:1007B0000028136008BF80BD43F2000EC4F2020E91
:1007C0004FF0010CCEF808C041B100BF50F8043B17
:1007D0000139CEF80030DEF80030F7D1DEF8000045
:1007E000106080BD80B542F2100EC4F2020E00BF50
:1007F0005EF8043CDB07FBD1DEF800301B060BD5AE
:1008000040F22313C4F267534EF80C3C48F6AB1386
:10081000CCF6EF534EF80C3C0AB34FF0000C00BF7F
:10082000DEF8003043F00103CEF8003031F81C3020
:10083000038000BF5EF8043CDB07FBD15EF8043C9C
:100840000CF1010C43F020034EF8043CDEF80030BC
:10085000023023F001039445CEF80030E0D1DEF8F9
:10086000000040F08000CEF8000080BD42F210028F
:10087000C4F2020252F8043CDB07FBD113681B06EA
:100880000BD540F22313C4F2675342F80C3C48F6F0
:10089000AB13CCF6EF5342F80C3C136843F0010362
:1008A0001360018052F8040CC007FBD152F8040C0D
:1008B00040F0200042F8040C106820F001001060A5
:1008C000106840F08000106070470000B0B50D0C5B
:1008D00089B20446FFF7CAFFA01C2946FFF7C6FFEE
:1008E00020880020B0BD0000B0B50546C0B28842E7
:1008F00088BFB0BD0C4600BF80B200F005F80135DE
:10090000E8B2A042F8D9B0BD42F21001C4F202012F
:100910000A6842F080020A6051F8042CD207FBD129
:100920000A6812060BD540F22312C4F2675241F84E
:100930000C2C48F6AB12CCF6EF5241F80C2C0A689E
:10094000800242F0020200F100600A60486008681C
:1009500040F04000086000BF51F8040CC007FBD114
:1009600051F8040C40F0200041F8040C086820F015
:1009700002000860086840F08000086070470000CE
:100980000068704710B540F6000EC4F2010E41F247
:10099000000C1028C4F2010C724604D31F2823D87F
:1009A00010380EF58062624527D040F60043C4F24D
:1009B00001039A4238D0724577D1C2B2072A4AD889
:1009C0004FF47F7202EA80000F22DEF8003082408E
:1009D00023EA0202CEF80020DEF8002001FA00F03F
:1009E0001043CEF8000010BD41F20002C4F2010233
:1009F000302838BF20386245D7D1C2B2072A3FD845
:100A00004FF47F7202EA80000F22DCF8003082404F
:100A100023EA0202CCF80020DCF8002001FA00F002
:100A20001043CCF8000010BDC2B2072A3ED84FF4E4
:100A30007F7202EA80000F22DEF80034824023EA4F
:100A40000202CEF80024DEF8002401FA00F0104380
:100A5000CEF8000410BD0F2A27D80838C0B2800095
:100A60000F22DEF80430824023EA0202CEF804208E
:100A7000DEF8042001FA00F01043CEF8040010BDA7
:100A80000F2A88BF10BD0838C0B280000F22DCF8E2
:100A90000430824023EA0202CCF80420DCF804206F
:100AA00001FA00F01043CCF8040010BD0F2AFCD866
:100AB00008384FF60443C0B2CFF6FF7380004FF002
:100AC0000F0E5CF803400EFA00F224EA02024CF822
:100AD00003205CF8032001FA00F010434CF80300F7
:100AE00010BD00001F2919D802280ED0012816D0E9
:100AF000002818BF704741F21402C4F2020201201C
:100B00001368884018431060704741F21402C4F221
:100B1000020201205368884018435060704741F238
:100B20001402C4F2020201209368884018439060C6
:100B30007047000041F20000C4F202008021016011
:100B400000214160016841F00101016001688907ED
:100B5000FCD54168416070474EF21000CEF20000B3
:100B6000002101600268026040F28C00C2F20000C5
:100B7000017040F28900C2F20000017040F28B0067
:100B8000C2F20000017040F28A00C2F2000001705F
:100B90007047000043F60000C4F2010001688906B6
:100BA000FCD54068C0B2704743F60001C4F20101B1
:100BB0000A68920651BF0020496801700120704701
:100BC00043F60C00C4F2010000210160416040F8CE
:100BD0000C1C016841F00C010160416841F4007196
:100BE000416040F2413140F8041C016841F4005179
:100BF0000160704743F60C01C4F2010141F8080C92
:100C000051F80C0C4006FBD5086820F04000086045
:100C1000704700000378002B08BF704743F60C02B2
:100C20000021C4F2010200BF42F8083C52F80C3C1B
:100C30005B06FBD51368013123F040031360CBB290
:100C4000C35C002BF0D1704780B500F001F880BD87
:100C500082B041F204000021C4F20200019100912F
:100C600050F8041C41F4803140F8041C50F8041C76
:100C700001F400310091019901310191009919B9F4
:100C80000199B1F5A06FF1D150F8041C890354BF4C
:100C90000021012100910099012936D142F2000181
:100CA000C4F202010A6842F010020A600A6822F0E7
:100CB00003020A600A6842F002020A6001680160E9
:100CC00001680160016841F480610160016821F4FC
:100CD0007C110160016841F4E811016050F8041CC6
:100CE00041F0807140F8041C50F8041C8901FBD5C8
:100CF000016821F003010160016841F00201016017
:100D0000016801F00C010829FAD102B07047000017
:100D100010B54EF21000CEF20000016821F48031CF
:100D20000160016821F001010160016821F0020108
:100D3000016040F28800C2F200000178012908D168
:100D400040F28401C2F200010A6801320A60002107
:100D5000017040F28A00C2F20000007801280AD136
:100D600040F26C00C2F20000016840F28000C2F262
:100D700000000068884740F28B04C2F2000420782B
:100D800001280CD140F26400C2F20000016840F278
:100D90007800C2F20000006888470020207040F20E
:100DA0008C04C2F20004207801280CD140F26000CB
:100DB000C2F20000016840F27400C2F20000006854
:100DC00088470020207040F28900C2F200000078BD
:100DD000012818BF10BD40F26800C2F2000001688F
:100DE00040F27C00C2F200000068884710BD00009D
:100DF00080B541F20000C4F202000168002241F017
:100E0000010101604168CFF6FF02114041600168B5
:100E10004FF6FF72CFF6F66211400160016821F4CF
:100E200080210160416821F4FE0141604FF41F01FF
:100E30008160FFF709FF4EF60850CEF200004FF038
:100E40000061016080BD000080B5FFF773FE0220E5
:100E50000221FFF747FE02200E21FFF743FE00208C
:100E60000621FFF73FFE00200421FFF73BFEFFF7BE
:100E700073FEFFF7A5FE09200A21FFF783FD0A2074
:100E80000421FFF77FFDFFF721FB002080BD00005C
:100E9000A00E0008000000209006000028010008B5
:040000050800016D81
:00000001FF
