:020000040800F2
:10140000980600208915000891150008931500081A
:1014100095150008971500089915000800000000B0
:101420000000000000000000000000009B15000804
:101430009D150008000000009F15000839210008D4
:10144000A3150008A3150008A3150008A31500089C
:10145000A3150008A3150008A3150008A31500088C
:10146000A3150008A3150008A3150008A31500087C
:10147000A3150008A3150008A3150008A31500086C
:10148000A3150008A3150008A3150008A31500085C
:10149000B5210008A3150008A3150008A31500082E
:1014A000A3150008A3150008A3150008A31500083C
:1014B000A3150008A3150008A3150008A31500082C
:1014C000A3150008A3150008A3150008A31500081C
:1014D000A3150008A3150008A3150008A31500080C
:1014E000A3150008A3150008A315000800F002F8D2
:1014F00000F03AF80AA090E8000C82448344AAF174
:101500000107DA4501D100F02FF8AFF2090EBAE871
:101510000F0013F0010F18BFFB1A43F00103184727
:10152000040D0000240D0000103A24BF78C878C1D3
:10153000FAD8520724BF30C830C144BF04680C60D9
:10154000704700000023002400250026103A28BF21
:1015500078C1FBD8520728BF30C148BF0B60704725
:101560001FB51FBD10B510BD00F031F81146FFF7D3
:10157000F7FF00F04BFE00F04FF803B4FFF7F2FF67
:1015800003BC00F057F800000948804709480047AD
:10159000FEE7FEE7FEE7FEE7FEE7FEE7FEE7FEE723
:1015A000FEE7FEE704480549054A064B7047000080
:1015B0006D210008ED140008980000209806002016
:1015C00098020020980200207047704770477546C7
:1015D00000F02CF8AE4605006946534620F007009F
:1015E000854618B020B5FFF7DDFFBDE820404FF07D
:1015F00000064FF000074FF000084FF0000BAC461C
:10160000ACE8C009ACE8C009ACE8C009ACE8C00966
:1016100021F007018D46704710B50446AFF30080F6
:101620002046BDE81040FFF7A8BF00000048704703
:101630002000002001491820ABBEFEE72600020072
:101640007047000080B500200221012200F024FA3A
:1016500080BD000080B500200221012200F088FA40
:101660004AF22010C0F20700012100F093FC002094
:101670000221002200F07CFA002080BD80B582B0FB
:1016800000208DF807000DF1070000F029FC08B1DB
:1016900002B080BD9DF8070001381D2898BFFFF7F4
:1016A000D9FF02B080BD00002DE9F04746F2046189
:1016B000C4F20001D0E9003890F809E051F8042C98
:1016C000012642F0010241F8042C8D6906FA0EF25F
:1016D00025EA02068E61857A6FEA020C012D38D068
:1016E000002D4CD16FF01F0606EA1349C3F3C23434
:1016F0008E6803F0020706EA0C068E6003F0040A07
:1017000044EAC704067A44EA4A04002E04EB0906B8
:1017100005D00C6846EA064614430C6013E0C8F393
:10172000C23408F0020744EAC7090C6808F004074D
:1017300004EA0C040C6044466FF3140449EA4707BA
:10174000344444EA074601EBCE04012DE6632664E7
:1017500015D18C6814438C60047A0D683CB145EA5D
:10176000020401EBCE070C60FB633B6407E005EA73
:101770000C0401EBCE070C60FB63C7F84080C37A12
:10178000012B04D033B90B6903EA0C0301E00B69A8
:1017900013430B61007B012802D1886910438861E3
:1017A00051F8040C20F0010041F8040CBDE8F0876A
:1017B00010B546F20043C4F200031A6822F0020298
:1017C0001A60D0F800C04CF0010EC0F800E000BF75
:1017D0005A689207FCD45A68D207F9D08A792EF059
:1017E0008003012A08BF4CF0810391F807C023F061
:1017F0004002BCF1010F08BF43F0400291F808C05D
:1018000022F02003BCF1010F08BF42F0200391F841
:1018100009C023F01002BCF1010F08BF43F0100211
:1018200091F80BC022F00503BCF1010F08BF42F094
:101830000403CA7891F802C091F804E012064C79CA
:1018400042EA8C72098842EA0E4242EA04520139A5
:101850001143C16123F00101016010BD32B1012AC1
:1018600018BF70474269114341617047426922EADB
:101870000101416170470000F0B500EB011EDEE997
:101880006C4606F00F0314F004054FEA1626157097
:1018900004F0020556744FF003061372557008BF2A
:1018A000152624FA06F65660CBB10EF5DE7C0EF551
:1018B000DC7E093200246FF01F0508E0DCF80060D0
:1018C000EE4016550134A34205F1080507D0032C5C
:1018D000F4D8DEF8006005F12007FE40F1E70129A9
:1018E00004D0002918BFF0BD0C3000E010300168B2
:1018F00041F020010160F0BDB0B558B1054646F297
:101900000040C4F200000021002400F005F8286027
:101910002046B0BD0120B0BD80B586B046F20C4275
:10192000C4F2000213689B07FCD001AAFFF7A4FFD2
:10193000DDF80D0006B080BD80B582B000208DF8C6
:1019400007000DF1070000F085F908B102B080BD75
:101950009DF80700002818BF00F0DAFA02B080BD39
:1019600080B500200B21042200F096F800200C2105
:101970000A2200F091F800F05BF9FFF763FE002007
:1019800080BD000080B500F093FA0220022100F033
:1019900067FA0020042100F063FA0220002100F021
:1019A0005FFA0120192100F05BFA002080BD0000E1
:1019B00010B546F2004440F21001C4F20004C2F235
:1019C00000012046FFF7F4FE40F20000C2F20000E2
:1019D000FFF76AFE00F0CCFA142000F027FA204648
:1019E00002210122FFF73AFF002010BD2DE9F0434C
:1019F000A9B005464FF600408846C0F600004FF6F5
:101A0000FC710027C0F2030115AC0DF1040900F1CF
:101A10004C0203E0904200F104000DD285421CBF4D
:101A2000036813F10103F5D001EA8703E05006686B
:101A3000013749F80360EDE73F2000F0BBF93804B7
:101A40000CD0BFB2043CA9F1040600BF54F8040F47
:101A500056F8041F00F0A0F9013FF7D1284641468F
:101A600000F09AF929B0BDE8F083000040F60802C2
:101A7000C4F2010250B1022806D001281CBF002088
:101A8000704702F5806201E002F500621068C8400C
:101A900000F001007047000080B502280AD001283C
:101AA00023D008BB072934D888004FF00F0C40F62C
:101AB000000E4FE0A1F10D00C0B2022888BF80BD2A
:101AC000A1F1080040F6044EC0B2C4F2010E80003D
:101AD0004FF00F0CDEF800140CFA00F3994302FAF1
:101AE00000F00843CEF8000480BD072928D840F64E
:101AF000000EC4F2010E88004FF00F0CDEF8001447
:101B00000CFA00F3994302FA00F00843CEF80004FF
:101B100080BD0F29E8D8A1F1080040F6000EC0B240
:101B2000C4F2010E80004FF00F0CDEF804100CFA26
:101B300000F3994302FA00F00843CEF8040080BD98
:101B40000F29D1D8A1F10800C0B280004FF00F0CCE
:101B500040F6044EC4F2010EDEF800100CFA00F359
:101B6000994302FA00F00843CEF8000080BD00005F
:101B700002281FD001280ED000284FD152B3012ACD
:101B80004CD140F60C02C4F20102012013688840D7
:101B900018431060704742B3012A3FD140F60C024F
:101BA000C4F201020120D2F8003488401843C2F880
:101BB0000004704732B3012A18BF704740F60C0288
:101BC000C4F201020120D2F8003888401843C2F85C
:101BD0000008704740F60C02C4F2010201201368AD
:101BE000884023EA00001060704740F60C02C4F2FF
:101BF00001020120D2F80034884023EA0000C2F834
:101C00000004704740F60C02C4F201020120D2F831
:101C10000038884023EA0000C2F80008704700003E
:101C200040F28100C2F20000012101707047000003
:101C300080B5002000210122FFF72EFF00200121A6
:101C40000822FFF729FF002001210022FFF790FF63
:101C500080BD000070B5044600204AF220152070B7
:101C6000002000210022C0F20705FFF781FF0220BB
:101C7000012100F08FF9002000210122FFF778FFF9
:101C80000F20012100F086F9002000210022FFF73B
:101C90006FFF41F62142C0F600022846012100F004
:101CA0009FF940F28106C2F2000600BF0020012128
:101CB000FFF7DCFE18B930780128F7D111E041F6C2
:101CC0002142C0F600022846012100F089F900BF38
:101CD00000200121FFF7CAFE012806D13078012833
:101CE000F6D101200021217070BD012000F022F901
:101CF00040F28405C2F20005286000F0ABF92868C4
:101D00004CF60931C8F63D51A0FB010149090020FC
:101D1000217070BD43F20000C4F20000C16821F0E0
:101D20000201C16045F255510160012141604CF64C
:101D3000CC4101607047000042F21002C4F202027E
:101D400052F8043CDB07FBD113681B060BD540F2AD
:101D50002313C4F2675342F80C3C48F6AB13CCF69D
:101D6000EF5342F80C3C136843F001031360018009
:101D700052F8040CC007FBD152F8040C40F02000CC
:101D800042F8040C106820F001001060106840F068
:101D90008000106070470000B0B50D0C89B2044699
:101DA000FFF7CAFFA01C2946FFF7C6FF20880020C6
:101DB000B0BD000042F21001C4F202010A6842F014
:101DC00080020A6051F8042CD207FBD10A6812067F
:101DD0000BD540F22312C4F2675241F80C2C48F69E
:101DE000AB12CCF6EF5241F80C2C0A68800242F09C
:101DF000020200F100600A604860086840F040009C
:101E0000086000BF51F8040CC007FBD151F8040C66
:101E100040F0200041F8040C086820F0020008603F
:101E2000086840F080000860704700001F2809D84B
:101E3000012101FA00F04EF20011CEF2000108601B
:101E4000002070473B2809D82038C0B2012101FA90
:101E500000F04EF20011CEF2000148600020704701
:101E60001F2919D802280ED0012816D0002818BF23
:101E7000704741F21402C4F2020201201368884044
:101E800018431060704741F21402C4F202020120AC
:101E90005368884018435060704741F21402C4F2FE
:101EA0000202012093688840184390607047000048
:101EB00041F20000C4F20200026842F48031920351
:101EC000016000D4FEE7426841F67C33CFF6FF3371
:101ED0001A40013221F44021C0E90012704700008D
:101EE000014600284FF0010011D040F28802C2F2F2
:101EF00000021378002B18BF704740F28903C2F22A
:101F0000000301201B78107000200B7010707047C8
:101F100040F28801C2F200010A78002A1CBF0120A9
:101F2000704740F28902C2F200021070002008706F
:101F3000704700004EF21402CEF20002116852689F
:101F400040B101281CBF0020704744F24020C0F27D
:101F50000F0001E04FF47A7040F29003C2F20003E8
:101F60001B68891AB3FBF0F0B1FBF0F0704700007A
:101F70004EF21000CEF20000016821F00401016071
:101F800040F2900044F24021C2F20000C0F20F0182
:101F9000016070474EF21002CEF2000200239360FF
:101FA00031B101290FD144F24021C0F20F0101E00B
:101FB0004FF47A7140F29003C2F200031B68B3FB46
:101FC000F1F148435060106840F00100106000BF1C
:101FD0001068C003FCD5106820F001001060704745
:101FE0004EF2100CCEF2000CDCF8003023F00103AE
:101FF000CCF800304FF00003CCF8083031B10129A3
:1020000010D144F24021C0F20F0101E04FF47A7187
:1020100040F29003C2F200031B68B3FBF1F14843A6
:10202000CCF8040040F28C00C2F200000260DCF840
:102030000000012140F00100CCF80000DCF80000B5
:1020400040F00200CCF8000040F28000C2F2000034
:10205000017070474EF21000CEF20000016821F0CE
:1020600001010160016821F0020101607047000078
:1020700080B500F001F880BD82B041F2040000217B
:10208000C4F202000191009150F8041C41F4803127
:1020900040F8041C50F8041C01F40031009101992F
:1020A00001310191009919B90199B1F5A06FF1D1F0
:1020B00050F8041C890354BF0021012100910099AC
:1020C000012936D142F20001C4F202010A6842F04D
:1020D00010020A600A6822F003020A600A6842F0ED
:1020E00002020A600168016001680160016841F450
:1020F00080610160016821F47C110160016841F494
:10210000E811016050F8041C41F0807140F8041C93
:1021100050F8041C8901FBD5016821F0030101601E
:10212000016841F002010160016801F00C01082919
:10213000FAD102B07047000080B540F28000C2F2D0
:102140000000007858B14EF21000CEF20000016895
:1021500021F001010160016821F00201016040F2FB
:102160008C00C2F200000068804780BD80B541F25B
:102170000000C4F202000168002241F00101016088
:102180004168CFF6FF021140416001684FF6FF72CF
:10219000CFF6F66211400160016821F480210160F0
:1021A000416821F4FE0141604FF41F018160FFF797
:1021B0005FFF80BD10B586B046F20044C4F2000453
:1021C00000F010F8E068800701D0002103E02069EA
:1021D000800704D0012101AA2046FFF74DFB06B07D
:1021E00010BD000080B582B001A8FFF785FB019803
:1021F000B0F5447F08D14FF60040C0F60000002142
:10220000FFF7F4FBFFF786FD02B080BDFFF7BAFBD6
:10221000FFF7A6FBFFF7CCFBFFF78EFBFFF72EFACD
:10222000FAE700004822000800000020200000001B
:102230002815000868220008200000207806000009
:10224000441500080000000000008000000080002D
:102250000003010001000000010000000C0100006B
:102260000000000000000000000000000000000076
:04000005080014EDEE
:00000001FF
