:020000040800F2
:1014000000070020A1150008A9150008AB15000869
:10141000AD150008AF150008B11500080000000068
:10142000000000000000000000000000B3150008EC
:10143000B515000800000000B71500080D320008BF
:10144000BB150008BB150008BB150008BB1500083C
:10145000BB150008BB150008BB150008BB1500082C
:10146000BB150008BB150008BB150008BB1500081C
:10147000BB150008BB150008BB150008BB1500080C
:10148000BB150008BB150008F11B0008BB150008C0
:10149000A9340008BB150008BB150008BB150008DF
:1014A000BB150008BB150008BB150008BB150008DC
:1014B0003D3300086133000885330008BB15000880
:1014C000BB150008BB150008BB150008BB150008BC
:1014D000BB150008BB150008BB150008BB150008AC
:1014E000BB150008BB150008BB15000800F002F88A
:1014F00000F046F80AA090E8000C82448344AAF168
:101500000107DA4501D100F03BF8AFF2090EBAE865
:101510000F0013F0010F18BFFB1A43F00103184727
:10152000A4260000C4260000103A24BF78C878C161
:10153000FAD8520724BF30C830C144BF04680C60D9
:10154000704700000023002400250026103A28BF21
:1015500078C1FBD8520728BF30C148BF0B60704725
:10156000642900F0F780732900F09582002070470D
:101570001FB59DE8030000F0CFF91FBD10B510BDE9
:1015800000F0B4FA1146FFF7F3FF01F0B9FF00F0E5
:10159000D2FA03B4FFF7F2FF03BC00F003FB000034
:1015A0000948804709480047FEE7FEE7FEE7FEE7F7
:1015B000FEE7FEE7FEE7FEE7FEE7FEE70448054933
:1015C000054A064B70470000F5320008ED1400088C
:1015D000000100200007002000030020000300207D
:1015E00070B5064600F07CF9056806F10B0020F0A6
:1015F0000704B4429CBF002070BD2B466A68BAB194
:101600001068A04210D304F1080188423CBF506822
:10161000586007D35168101941601168091B0160B7
:1016200058601460101D70BD13465268002AE7D13F
:101630002146284600F05CF90028DED170BD70B567
:101640000446051F00F04CF90068002C14BF4468E4
:1016500070BD002C18BFAC423CBF20466468F8D374
:1016600001680A18AA4218BF456003D12A680546D6
:101670001144016028684119A1421CBF6C6070BD13
:101680006168696021680844286070BD0FB41CB5AA
:10169000074B06AA7B4469460090059800F0D1F9F3
:1016A0000020694600F0E0F91CBC5DF814FB000066
:1016B000D103000070B5044685690068C10601D5F4
:1016C000302600E02026C00707D070BDD4E90121F4
:1016D00030469047206A401C20626D1EF6D570BDD2
:1016E00070B5044685690078C00707D170BDD4E99C
:1016F000012120209047206A401C20626D1EF6D5F3
:1017000070BD70B50C460546012A05D028788006C4
:1017100000D5EA69002302E0012305E05B1C934247
:1017200002D2E05C0028F9D1A869E618C01AA861C5
:10173000286A184428622846FFF7BCFF04E0D5E970
:10174000012114F8010B9047B442F8D32846FFF763
:10175000C7FF70BD2DE9F0410646002410687529C9
:10176000314616A510D0AFF30080002802DA4042BF
:1017700013A507E031688A0701D512A502E04907E1
:1017800004D511A5012401E0AFF3008000210A2255
:1017900006F1240709E0B0FBF2FCB0FBF2F302FB18
:1017A0001C00303078541846491C0028F3D12346D9
:1017B0002A463046BDE8F04100F0E4B800000000E1
:1017C0002D0000002B000000200000002DE9F04754
:1017D0004FF0000A89460446C0F820A02046E16880
:1017E0008847002876D0252806D0D4E901219047E3
:1017F000206A401C2062F1E7E16820460025884706
:10180000C4F81CA006460027C4F818A02A2E09D048
:10181000304601F0BBFE38B304EB8708303EC8F811
:10182000186019E059F8041B204604EB8702916107
:10183000E1688847012F064618D1E069002820DAC0
:1018400025F020051DE0D8F8180000EB800006EB1D
:1018500040003038C8F818002046E168884706463E
:1018600001F094FE0028EED1012F0AD02E2E08D1CF
:101870002046E16888477F1C0646022F45F0200578
:10188000C4DBA069002803DA404245F00105A061ED
:10189000E80701D025F01005B6B1A6F141001928DE
:1018A00002D8203645F400654A4631462046256078
:1018B0004D46FFF755FE58B1012806D0ED1D25F025
:1018C000070000F1080989E704E005F1040985E74C
:1018D00030468AE7206ABDE8F08770477047704756
:1018E00000487047380000207047704770477047C5
:1018F00038B504460A4600206946AFF30080002848
:1019000008BF38BD02460099204600F0CDF80120FE
:1019100038BD012000F0E2B8F8B5AFF3008005460D
:1019200000200C46102000BF0646A819A0420DD981
:10193000324669460020AFF30080070008BF00F080
:10194000CDF80098A04218BF0546C419FFF7C8FF9C
:1019500005600746F01D20F007004619284600F0F4
:101960000AF8B44208BFF8BDA21B31463868BDE88A
:10197000F84000F099B800210160C0E901107047FB
:10198000102070472DE9F0470D46994692460446CF
:1019900000F124080168880604D5E06921F01001EF
:1019A000216000E00120A84201DD471B00E0002784
:1019B000A1697A1902EB0900081AA0612078C00613
:1019C00002D42046FFF776FE002608E0D4E9012184
:1019D0001AF806009047206A401C761C20624E458B
:1019E000F4DB2078C0060AD52046FFF763FE06E048
:1019F000D4E9012130209047206A401C2062381E23
:101A0000A7F10107F4DC07E0D4E9012118F805008B
:101A10009047206A401C2062281EA5F10105F3DCD6
:101A20002046FFF75DFE2078000602D50220BDE8C3
:101A3000F0870120FBE7000001694A1C0261087879
:101A4000704700B58FB0CDE90131002105910549FE
:101A50007944CDE9031011466846FFF7B7FE0FB091
:101A600000BD0000E5FFFFFF0A6802F8010B0A60F5
:101A7000704710B5436913B1AFF3008001E0FFF781
:101A800040FE012010BD127800F124010A700022EE
:101A90004A700122EDE711684FF0FF32E9E70000DC
:101AA0000048704730000020034640688C460028FC
:101AB00018BF88423CBF03464068F8D318681844F2
:101AC000884207D00CF1030020F00700001D411AE6
:101AD000521A0146081D0A60FFF7B1BD10B500F0AB
:101AE00039F8BDE8104000F02FB870477546FFF791
:101AF000D7FFAE4605006946534620F007008546ED
:101B000018B020B5FFF75AFDBDE820404FF00006A1
:101B10004FF000074FF000084FF0000BAC46ACE868
:101B2000C009ACE8C009ACE8C009ACE8C00921F0C4
:101B300007018D46704710B50446AFF3008020467C
:101B4000BDE81040FFF725BD002801D000F02AB8FD
:101B50007047000010B5012805D0002103A000F057
:101B600027F8012010BD09A1F8E7000053494752AA
:101B7000544D454D3A204F7574206F66206865615D
:101B800070206D656D6F7279000000003A20486525
:101B90006170206D656D6F727920636F7272757000
:101BA0007465640001491820ABBEFEE72600020000
:101BB00070B505460C460A2000E06D1C00F011F8D7
:101BC00035B128780028F8D102E0641C00F009F84B
:101BD00014B120780028F8D1BDE870400A20AFF396
:101BE000008008B569468DF800000320ABBE08BD33
:101BF00010B540F2900042F20044C2F20000C4F27C
:101C000001040168E06C6FF31F308847206820F002
:101C100002002060206820F01000206010BD00004D
:101C20002DE9F04746F20461C4F20001D0E9003822
:101C300090F809E051F8042C012642F0010241F825
:101C4000042C8D6906FA0EF225EA02068E61857A69
:101C50006FEA020C012D38D0002D4CD16FF01F0619
:101C600006EA1349C3F3C2348E6803F0020706EA9A
:101C70000C068E6003F0040A44EAC704067A44EABC
:101C80004A04002E04EB090605D00C6846EA064615
:101C900014430C6013E0C8F3C23408F0020744EAAE
:101CA000C7090C6808F0040704EA0C040C604446F9
:101CB0006FF3140449EA4707344444EA074601EB4A
:101CC000CE04012DE663266415D18C6814438C6024
:101CD000047A0D683CB145EA020401EBCE070C60C2
:101CE000FB633B6407E005EA0C0401EBCE070C60E4
:101CF000FB63C7F84080C37A012B04D033B90B696A
:101D000003EA0C0301E00B6913430B61007B01281C
:101D100002D188691043886151F8040C20F0010059
:101D200041F8040CBDE8F08710B546F20043C4F258
:101D300000031A6822F002021A60D0F800C04CF0CA
:101D4000010EC0F800E000BF5A689207FCD45A6840
:101D5000D207F9D08A792EF08003012A08BF4CF00F
:101D6000810391F807C023F04002BCF1010F08BFC6
:101D700043F0400291F808C022F02003BCF1010FAB
:101D800008BF42F0200391F809C023F01002BCF113
:101D9000010F08BF43F0100291F80BC022F00503B9
:101DA000BCF1010F08BF42F00403CA7891F802C0E9
:101DB00091F804E012064C7942EA8C72098842EAF2
:101DC0000E4242EA045201391143C16123F001017C
:101DD000016010BD32B1012A18BF7047426911433A
:101DE00041617047426922EA010141617047000088
:101DF000F0B500EB011EDEE96C4606F00F0314F0AF
:101E000004054FEA1626157004F0020556744FF0CB
:101E100003061372557008BF152624FA06F656609D
:101E2000CBB10EF5DE7C0EF5DC7E093200246FF0BE
:101E30001F0508E0DCF80060EE4016550134A342AF
:101E400005F1080507D0032CF4D8DEF8006005F191
:101E50002007FE40F1E7012904D0002918BFF0BD9A
:101E60000C3000E01030016841F020010160F0BD4D
:101E7000B0B558B1054646F20040C4F2000000215A
:101E8000002400F005F828602046B0BD0120B0BD58
:101E900080B586B046F20C42C4F2000213689B077C
:101EA000FCD001AAFFF7A4FFDDF80D0006B080BD4D
:101EB000B0B50B20042100F055FD0C200A2100F0E4
:101EC00051FD16200D2100F04DFD17200D2100F0D1
:101ED00049FD0020002100F045FD0120002100F017
:101EE00041FD1020022100F03DFD1120022100F0F3
:101EF00039FD4FF0FF3405A528194078022100F084
:101F000031FD0134032CF7D10020B0BD05040302DC
:101F100080B500F0CDFE0220022100F0A1FE0220DB
:101F2000032100F09DFE0220002100F099FE012017
:101F3000192100F095FE0120012100F091FE012001
:101F4000152100F08DFE0220092100F089FE0020FD
:101F500080BD000010B546F2004440F21001C4F20A
:101F60000004C2F200012046FFF7DEFE40F200004E
:101F7000C2F20000FFF754FE142000F061FE20467C
:101F800002210122FFF726FF4020012100F07AFB09
:101F9000402000F0D9FA00F0FFFD01F005FA00F052
:101FA000DDF900F093FB00200021002200F03EFC50
:101FB00000200121002200F039FC00200021002235
:101FC00000F0EAFB002010BD2DE9F043A9B0054662
:101FD0004FF600408846C0F600004FF6FC7100271F
:101FE000C0F2030115AC0DF1040900F14C0203E04D
:101FF000904200F104000DD285421CBF036813F12A
:102000000103F5D001EA8703E0500668013749F87B
:102010000360EDE73F2000F069FC38040CD0BFB24C
:10202000043CA9F1040600BF54F8040F56F8041F3D
:1020300000F04EFC013FF7D12846414600F048FC35
:1020400029B0BDE8F083000080B584B000208DF891
:102050000F008DF80E008DF80D008DF80C008DF836
:102060000B0001900DF10F0000F0C2FE0DF10E000B
:1020700000F0EEFE0DF10D0000F018FF9DF80E00CF
:1020800001281DD10DF10B0000F0CAFE002000F068
:102090005BFF40F2E701C2F200019DF80B000A78F5
:1020A00090420DD0087000200221032200F03CF97C
:1020B0000020022100F068F99DF80B0000F08AF979
:1020C0009DF80F0001281CD103A800F079FE002024
:1020D00000F016FF40F2E601C2F200019DF80C008C
:1020E0000A7890420DD0087001200221042200F0ED
:1020F0001BF90120022100F047F99DF80C0000F0C7
:1021000069F99DF80D0001284AD101A800F0B8FE38
:10211000002000F041FF019840F2E801C2F2000106
:1021200000780A7890420DD008700220062107221C
:1021300000F0FAF80220062100F026F90198007854
:1021400000F048F9019840F2E901C2F2000140783C
:102150000A7890420DD0087002200321042200F07A
:10216000E3F80220032100F00FF90198407800F015
:1021700031F9019840F2EA01C2F2000180780A7850
:1021800090420DD0087002200021012200F0CCF80E
:102190000220002100F0F8F80198807800F01AF988
:1021A00004B080BD80B540F2E600C2F2000000211C
:1021B000017040F2E700C2F200000170002000212F
:1021C00000F0E2F813A000F015F90020042100F05F
:1021D000DBF811A000F00EF90120002100F0D4F886
:1021E0000EA000F007F90120052100F0CDF80CA0A9
:1021F00000F000F90220022100F0C6F83A2000F0B9
:10220000D5F80220052100F0BFF83A2000F0CEF802
:1022100080BD00BF543A000043000000533A000064
:102220004B4D00002DE9F04182B040F2E304C2F2D0
:1022300000042078002507288DF807508DF80650F7
:102240002DD140F2DA08C2F20008B8F8000044F6D6
:102250002511C2F2924140F2D807A0FB0123C2F23D
:1022600000073A88C01AA2FB011603EB5000911B2D
:10227000C0F3870006EB510600F054FE012000F089
:1022800063FEC6F3870000F029FE012000F038FE4F
:102290002570A8F800503D8002B0BDE8F0810DF136
:1022A00007000DF1060100F0E5F840F2DA01C2F294
:1022B00000019DF807000A8840F2D803C2F200032B
:1022C00010449DF806201F8808802178B8181880CF
:1022D000481C207002B0BDE8F081000040F2E3002D
:1022E000C2F200000021017040F2DA00C2F20000E8
:1022F000018040F2D800C2F2000001807047000067
:1023000010B504461020002100F0E0FB200900F089
:102310008FF8204600F08CF802204FF4FA6101F0AB
:102320008DF8002010BD000070B591420DD8144604
:102330000D460646E9B2304600F026F8202000F0AF
:1023400035F80135E8B2A042F4D9002070BD000094
:1023500080B50120FFF7D4FF002080BD80B50220AA
:10236000FFF7CEFF2820FFF7CBFF0020002100F071
:102370000BF80620FFF7C4FF0C20FFF7C1FF012078
:10238000FFF7BEFF002080BD03280DD880B549F2BD
:102390008002C000C9F6880222FA00F00843C0B2E9
:1023A000FFF7AEFFBDE880400020704710B504463F
:1023B0001020012100F08AFB200900F039F82046A6
:1023C00000F036F802204FF4FA6101F037F80020EF
:1023D00010BD000010B590B06C46024604A1204626
:1023E000FFF754F9204600F005F8002010B010BDAA
:1023F00025640000B0B504460078B0B1002506E0C1
:1024000001200021FFF7C0FFE8B2205C68B1C0B234
:10241000FFF7CCFFE8B20F2805F10105F0D01F2827
:10242000F2D1FFF795FF0025EAE70020B0BD0000DC
:1024300070B5044600250EA624FA05F1705D01F082
:10244000010100F043FB0135042DF5D111200121DC
:1024500000F03CFB0220142100F0F0FF11200021CD
:1024600000F034FB0220142100F0E8FF70BD00BF33
:10247000050403022DE9F04182B00546002088469C
:10248000ADF80600ADF8040001AB002000210122E8
:1024900000F04AF90DF1060300200121012200F0AD
:1024A00043F9BDF8040001F0AAF80026C4F20806BA
:1024B0000022334601F0B6F80023C4F2590300228B
:1024C00001F0B0F801F06AF84FF20004C4F27F5452
:1024D000214601F0A5F9BDF806100746084601F0AF
:1024E0008EF80022334601F09DF801F057F821469E
:1024F00001F096F90021C4F2201101F06FFA0446B0
:10250000384601F04FFA2870204601F04BFA014698
:10251000002088F8001002B0BDE8F0810146402894
:1025200045F20040C4F2000008BF7047412904BFD3
:1025300000F58060704700207047000042EA4101CA
:10254000C9B201617047000080B5FFF7E7FF01687D
:1025500041F480610160022141600A21C1610321CF
:10256000016244F2FC01816080BD0000F0B581B0E1
:102570001F4616460C46FFF7D1FF0546006840F49B
:10258000807028606869C007FCD02846394601225F
:10259000FFF7D4FF68698007FCD52868012E0DD1AC
:1025A00020F480602860A869286840F400702860E2
:1025B00068694006FCD52869207028E040F48060F6
:1025C0002860A869A6F101007EB10021002200BFA9
:1025D0006B695B065CBF6B695FEA4373F8D52B6977
:1025E00001326354D1B28842F2DC296821F480615F
:1025F0002960296841F40071296000BF69694906B2
:102600005CBF69695FEA4171F8D52969215400BF4F
:1026100001B0F0BD2DE9F041DDF818801F461546E8
:102620000E46FFF77BFF044660698007FCD42068F4
:1026300040F48070206000BF6069C007FCD0204675
:1026400039460022FFF77AFF60698007FCD5A06950
:1026500045B1002061690906FCD5315C0130A84212
:102660002161F7D160694007FCD5B8F1000F02D0B5
:1026700000BFBDE8F081206840F40070206000BF1A
:10268000BDE8F08110B50C46FFF748FF3CB1012CC6
:1026900018BF10BD016841F00101016010BD016863
:1026A00021F00101016010BD43F20000C4F20000FE
:1026B000C16821F00201C16045F25551016001215C
:1026C00041604CF6CC41016070470000B0B543F664
:1026D000BC3C43F6743E0020C0F6000CC0F6000E71
:1026E000002302E00133022B1CD0002BFAD15CF84E
:1026F000231003EB430248608860C8600861C86229
:102700000863486372448C685578927844EAC5241B
:102710008C608C6844EA82028A608A6842F0010216
:102720008A60DFE70020B0BD43F6BC3CC0F6000C79
:102730005CF820C00020CCF83400DCF8340040EA1B
:102740000250CCF83400DCF834000843CCF83400F4
:10275000DCF8080040F00100CCF80800DCF80800C4
:1027600040F48000CCF80800DCF800008007FBD5BE
:10277000DCF84C006FF31F301880DCF8000020F00C
:102780000200CCF80000DCF8000020F0100100206E
:10279000CCF8001070470000042944D8DFE801F0AD
:1027A000030D1721350043F6BC31C0F6000151F886
:1027B0002000816821F0020124E043F6BC31C0F61C
:1027C000000151F82000816841F002011AE043F64F
:1027D000BC31C0F6000151F82000816821F00201EF
:1027E00008E043F6BC31C0F6000151F820008168D2
:1027F00041F002018160416841F48071416081686B
:1028000041F4807181600020704743F6BC31C0F60E
:10281000000151F82000416841F4006141604168C5
:1028200041EA4231416000207047000009290BD87D
:1028300043F6BC33C0F6000353F8200001EB41011E
:1028400002FA01F110300EE011290FD843F6BC3323
:102850000A39C0F60003C9B253F8200001EB410168
:1028600002FA01F10C300268114301600020704748
:1028700042F21002C4F2020252F8043CDB07FBD120
:1028800013681B060BD540F22313C4F2675342F8BA
:102890000C3C48F6AB13CCF6EF5342F80C3C1368F3
:1028A00043F001031360018052F8040CC007FBD110
:1028B00052F8040C40F0200042F8040C106820F09C
:1028C00001001060106840F0800010607047000048
:1028D000B0B50D0C89B20446FFF7CAFFA01C29460B
:1028E000FFF7C6FF20880020B0BD000042F21001B3
:1028F000C4F202010A6842F080020A6051F8042C16
:10290000D207FBD10A6812060BD540F22312C4F29B
:10291000675241F80C2C48F6AB12CCF6EF5241F856
:102920000C2C0A68800242F0020200F100600A608A
:102930004860086840F04000086000BF51F8040C8F
:10294000C007FBD151F8040C40F0200041F8040C02
:10295000086820F002000860086840F08000086005
:102960007047000010B540F6000EC4F2010E41F2AF
:10297000000C1028C4F2010C724604D31F2824D87E
:1029800010380EF58062624528D040F60043C4F24C
:1029900001039A423AD072457AD1C2B2072A4DD881
:1029A0004FF47F7202EA80000F22DEF8003082408E
:1029B00023EA0202CEF80020DEF8002001FA00F03F
:1029C0001043CEF80000002010BD41F20002C4F216
:1029D0000102302838BF20386245D6D1C2B2072A5A
:1029E00042D84FF47F7202EA80000F22DCF80030F8
:1029F000824023EA0202CCF80020DCF8002001FA31
:102A000000F01043CCF80000002010BDC2B2072A2D
:102A100040D84FF47F7202EA80000F22DEF80034C3
:102A2000824023EA0202CEF80024DEF8002401FAF4
:102A300000F01043CEF80004002010BD0F2A27D864
:102A40000838C0B280000F22DEF80430824023EA4A
:102A50000202CEF80420DEF8042001FA00F0104350
:102A6000CEF80400002010BD0F2A11D80838C0B2DB
:102A700080000F22DCF80430824023EA0202CCF806
:102A80000420DCF8042001FA00F01043CCF8040024
:102A9000002010BD0F2AFBD808384FF60443C0B2FF
:102AA000CFF6FF7380004FF00F0E5CF803400EFA74
:102AB00000F224EA02024CF803205CF8032001FA39
:102AC00000F010434CF80300002010BD40F6000C4D
:102AD000C4F2010C102863460ED31F2803D8103807
:102AE0000CF5806308E040F61443C4F2010303F5DB
:102AF0007B73302838BF2038C0B20F2849D841F244
:102B00000002C4F2010293421ED040F60042C4F219
:102B1000010293420BD063453BD1012922D0C1BBB6
:102B2000012101FA00F0CCF81400002070470129BF
:102B30001FD071BB012101FA00F040F61441C4F22C
:102B40000101086000207047012919D009BB01214B
:102B500001FA00F040F61441C4F20101C1F800048A
:102B600000207047012101FA00F0CCF8100000208D
:102B70007047012101FA00F0CCF8100400207047E2
:102B8000012101FA00F040F61441C4F20101C1F83C
:102B9000FC030020704700004EF21000CEF200004F
:102BA00000210160026842F00402026040F2E50088
:102BB000C2F20000017040F2E100C2F200000170B8
:102BC00040F2E400C2F20000017040F2E200C2F202
:102BD000000001707047000070B54EF21006CEF292
:102BE0000006144632680D4622F002013160316859
:102BF00021F0010131600021B1604FF4FA514843E6
:102C00000138706000F0BCFC40F2E200C2F200004B
:102C10000121017062B600BF40F29400C2F20000D0
:102C2000056040F2BC00C2F200000460306840F071
:102C300002003060306840F00100306070BD00007C
:102C40004EF20011CEF2000141EAD00100F01F0067
:102C5000012202FA00F021F0030108607047000031
:102C60001F2919D802280ED0012816D0002818BF15
:102C7000704741F21402C4F2020201201368884036
:102C800018431060704741F21402C4F2020201209E
:102C90005368884018435060704741F21402C4F2F0
:102CA000020201209368884018439060704700003A
:102CB00041F20000C4F20200026842F48031920343
:102CC000016000D4FEE7426841F67C33CFF6FF3363
:102CD0001A40013221F44021C0E90012704700007F
:102CE00080B584B04FF0000C0DF10E0140200122A0
:102CF0006823ADF80EC0CDF807C0CDF804C0CDF8FC
:102D000000C0FFF787FC01A9402007226823FFF7D6
:102D10002DFC9DF804009DF8051000F00F0300093C
:102D200000EB800003EB400340F2A400C2F200007D
:102D3000037001F00F0309099DF8062001EB8101E2
:102D400003EB41019DF807C0417002F00F01C2F38F
:102D5000001242EA820201EB42019DF808208170D4
:102D60000CF00F01C17002F00F01120902EB820298
:102D700001EB42019DF80920017102F00F011209D7
:102D800002EB820201EB42019DF80A20417102F040
:102D90000F01120902EB820201EB4201817104B0C2
:102DA00080BD000080B5FFF79BFF40F2A400C2F297
:102DB000000000F0DBF8012000F0EEF880BD00001C
:102DC000014600284FF0010011D040F2AE02C2F2DD
:102DD00000021378002B18BF704740F2AB03C2F219
:102DE000000301201B78107000200B7010707047DA
:102DF000014600284FF0010011D040F2AD02C2F2AE
:102E000000021378002B18BF704740F2AC03C2F2E7
:102E1000000301201B78107000200B7010707047A9
:102E2000014600284FF0010011D040F2B202C2F278
:102E300000021378002B18BF704740F2AF03C2F2B4
:102E4000000301201B78107000200B701070704779
:102E5000014600284FF0010011D040F2B102C2F249
:102E600000021378002B18BF704740F2B003C2F283
:102E7000000301201B78107000200B701070704749
:102E8000014600284FF001000FD040F2BA02C2F212
:102E900000021378002B18BF704740F2B400C2F252
:102EA000000000680860002010707047014600288C
:102EB0004FF0010011D040F2B902C2F200021378C3
:102EC000002B18BF704740F2B803C2F20003012084
:102ED0001B78107000200B701070704740F2AE012C
:102EE000C2F200010A78002A1CBF0120704740F29C
:102EF000AB02C2F2000210700020087070470000A0
:102F000040F2AD01C2F200010A78002A1CBF012084
:102F1000704740F2AC02C2F200021070002008704C
:102F20007047000040F2B201C2F200010A78002AA4
:102F30001CBF0120704740F2AF02C2F200021070C5
:102F4000002008707047000040F2B101C2F2000199
:102F50000A78002A1CBF0120704740F2B002C2F27A
:102F60000002107000200870704700000146002821
:102F70004FF001000ED040F2BA02C2F20002137804
:102F8000002B18BF704740F2B400C2F2000001608D
:102F9000002010707047000040F2B901C2F2000139
:102FA0000A78002A1CBF0120704740F2B802C2F222
:102FB000000210700020087070470000B0B5054690
:102FC00008200C46FEF70CFB014600284FF00000DD
:102FD00008BFB0BD6268486020460D60002A18BF77
:102FE000101D0160207A6160013020720120B0BDA7
:102FF0002DE9F04381B0DDE90898074610201C4612
:1030000015460E46FEF7ECFA0021817140F2CC0124
:10301000C2F20001077046808580C471C0E9029841
:10302000FFF7CCFF002001B0BDE8F08370B50C467F
:10303000096888B1013800220D46D3B24968984228
:1030400002F10102F8DCD1E90006FEF7F8FA68683F
:10305000FEF7F5FA6E6007E0D1E90005FEF7EFFA3A
:103060002068FEF7ECFA2560207A0138207270BDE6
:103070002DE9F0410568002D08BFBDE8F0818046CC
:1030800000260327012402E06D6801368DB129680E
:1030900088790228F8D1D1E902208F7190472868F9
:1030A000818884710029EFD1F0B24146FFF7BEFF5D
:1030B000EAE7BDE8F081000080B50021C0E9001119
:1030C000017243F2E10140F2CC02C0F60001C2F20B
:1030D00000020120FFF780FD80BD00007047000066
:1030E0002DE9F0410568002D08BFBDE8F0810446D8
:1030F00000264FF00108022705E000BF511E418065
:103100006D680136E5B1286881680029F8D04288E9
:10311000002AF3D1C2790AB187710BE0C0688847F1
:103120002868818880F8068021B9F0B22146FFF72F
:103130007DFF00BF28688188002918BF4180DFE734
:10314000BDE8F08180B500F001F880BD82B041F2A9
:1031500004000021C4F202000191009150F8041C07
:1031600041F4803140F8041C50F8041C01F4003193
:103170000091019901310191009919B90199B1F5B5
:10318000A06FF1D150F8041C890354BF0021012124
:1031900000910099012936D142F20001C4F20201E6
:1031A0000A6842F010020A600A6822F003020A600C
:1031B0000A6842F002020A60016801600168016069
:1031C000016841F480610160016821F47C110160B3
:1031D000016841F4E811016050F8041C41F080716D
:1031E00040F8041C50F8041C8901FBD5016821F04B
:1031F00003010160016841F002010160016801F012
:103200000C010829FAD102B07047000010B54EF247
:103210001000CEF20000016840F2E00421F4803199
:103220000160C2F20004207801280CD100F0A8F956
:103230000020207062B600BF40F2DC00C2F2000045
:1032400001680131016040F2E200C2F20000007842
:1032500001280AD140F29400C2F20000016840F255
:10326000BC00C2F200000068884740F2E404C2F2E9
:1032700000042078012810D100F082F9002020708D
:1032800062B600BF40F29800C2F20000016840F24E
:10329000C000C2F200000068884740F2E100C2F2BC
:1032A0000000007801280AD140F29C00C2F2000020
:1032B000016840F2C400C2F200000068884740F292
:1032C000E504C2F200042078012818BF10BD00F008
:1032D00057F90020207062B600BF40F2A000C2F291
:1032E0000000016840F2C800C2F200000068884790
:1032F00010BD000080B541F20000C4F20200016878
:10330000002241F0010101604168CFF6FF02114047
:10331000416001684FF6FF72CFF6F662114001601E
:10332000016821F480210160416821F4FE014160BF
:103330004FF41F018160FFF705FF80BD80B540F2AB
:103340001C00C2F200004068016921F00101016126
:1033500040F2EC00C2F200004068804780BD0000EF
:1033600080B540F21C00C2F200008068016921F0C3
:103370000101016140F2EC00C2F200008068804768
:1033800080BD000080B540F21C00C2F20000C068A1
:10339000016921F00101016140F2EC00C2F200007C
:1033A000C068804780BD0000F0B543F67C3140F234
:1033B0001C0E4DF683634FF0000CC0F60001C2F204
:1033C000000EC4F21B33002024E000BF156845F056
:1033D000100515606568D768A5FB0356E578B60C3F
:1033E000002D47F0010508BF27F00105D5602589AC
:1033F000E4687443B4FBF5F4013DBCEB144F9562F3
:1034000008BFD462146844F001041460043010282A
:1034100008BFF0BD01EB80046278002AF6D05EF8A8
:103420000020A5781668012D26F001061660CDD083
:10343000002DCFD1156825F01005CAE780B540F200
:103440001C0243F67C33C2F20002C0F6000352F8BD
:10345000202003EB0010D0F804C04DF68363C4F2C3
:103460001B33ACFB033C1368008923F0010313609A
:10347000136923F0010E4FEA9C435943B1FBF0F16D
:103480000020B0EB114FC2F810E004BFD1625062CF
:10349000106840F0010010601069C007FCD010688F
:1034A00020F00100106080BD10B586B046F20044E7
:1034B000C4F2000400F010F8E068800701D0002199
:1034C00003E02069800704D0012101AA2046FEF70D
:1034D0008FFC06B010BD000080B582B001A8FEF7D9
:1034E000C7FC0198B0F5447F08D14FF60040C0F604
:1034F00000000021FEF768FDFFF7D6F802B080BD9E
:1035000082B0FEF705FDFEF7D3FCFEF723FDFEF7C4
:10351000E5FEFEF747FE40F2CC04C2F2000420466E
:10352000FFF7CAFD42F22520C0F6000000250090FA
:10353000002000214FF42F7201230195FFF758FD61
:1035400042F24900C0F6000000900120322140F212
:10355000EE2201230195FFF74BFD42F6A550C0F680
:1035600000000090022064214FF4FA7201230195BB
:10357000FFF73EFDFFF7B2FD2046FFF779FDFBE7C1
:10358000EFF3108000F0010072B6704730380A285F
:1035900001D20120704700207047000021F0004256
:1035A00001F00043A2F16052B2F5801F28BFD2F1B2
:1035B0007F6C0BD95FEA001C43EAC20242EB5070F9
:1035C00018BF704728BF20F001007047B2F5801F78
:1035D000BCBF184670474FEA410C1CF5001F02D2D1
:1035E000084600F0C2BA70B500F0C6F800000089C5
:1035F000FFF7F6BF4FF00040A0F580007047B0FA2B
:1036000080F310FA03F10AD0C3F11D0303F58063C0
:103610004FEA03524FEA415002EBD12170474FF07D
:103620000000704770B5DFF848C11CEA111E1EBFCC
:103630001CEA13159EEA0C0F95EA0C0F00F06F8040
:1036400081EA03044EEAD47EAE4421EA4C1123EA17
:103650004C1341F4801143F48013AEF17F7EA1FB43
:10366000024CA0FB0365361955EB0C05A1FB034C7E
:103670004CF10003A0FB021C16EB0C06654153F154
:103680000003094218BF46F0010613F4007F0BD176
:103690004FEA03314FEA053041EA155140EA16502E
:1036A00034036FF003020AE04FEAC3214FEAC5205A
:1036B00041EA555140EA5650F4026FF0020202EB23
:1036C0002E4201EB025585EACE710AD05FEA440C26
:1036D00018BF24F0004450F1000041F1000120EA3D
:1036E000D47040F2FE7C624500D270BDA84214BF87
:1036F0004FF080444FF04044002E08BF0024BEF13C
:10370000806FA8BFA1F1C041BDE8704080F2828007
:1037100001F1C04101F000414FF0000070470CEA98
:1037200013159EEA0C0F18BF95EA0C0F06D081EA1C
:10373000030E4FF000000EF0004170BD00F01CF8C9
:103740008900013E00F007B800F009B84FEA430CC9
:103750005FEA5C5C08D081EA030100F05BB84FEAE5
:10376000410C5FEA5C5CF6D102494FF00000704703
:103770000000FF070000F87F0EF1020E2EF0030E8E
:103780005EF8046B364205D4012A43EB030515F5B8
:10379000001F12D8012841EB010C1CF5001F0CD8AA
:1037A0000ED14FEAD17C0CEB4C0C0CF1020C15F550
:1037B000001F08BF4CEBD37C04E04FF0080C01E085
:1037C0004FEAD37C0CEB4C0526FA05F606F007060B
:1037D000B6F1040C06D20EEB860CBDE870404CF03E
:1037E000010C6047DFE80CF0090B02024FF00041CA
:1037F000A1F500214FF0000070BD194610460128C8
:1038000051EB010418BFD4F5001484BF002001F06F
:10381000004170BD0808A0F500114FEA3101704762
:103820004FF47F0C1CEAD0121EBF1CEAD11392EA9F
:103830000C0F93EA0C0F00F0858090EA010F48BF4F
:1038400042F4807240F4000C41F400002CF07F41FF
:1038500020F07F4000B5A2EB030281420FF2081C6A
:10386000ACEB504E9EF800E0C0F100004FEA4E0E67
:1038700000FB0EFC38BF49004FEA2C1C0CFB0EF37A
:103880004FEACE1E0EEB635E4FEA112C0EFB0CFCD2
:103890004FEAC1214FEA1C5300FB031102F5FA0263
:1038A0004FEA112C0EFB0CFC4FEA01314FEADC4CC5
:1038B00000FB0C1142EB2242C14228BF09184CEB1D
:1038C00003335DF804EB10EB410143EBC250B2F55A
:1038D0007C0F38BF704729D512F0F00F1CBF00F1E4
:1038E000C04000F000407047008182838485868755
:1038F00088898B8C8D8E8F919293959697999A9CAF
:103900009D9FA0A2A3A5A7A8AAACAEB0B2B3B5B71D
:10391000B9BCBEC0C2C5C7C9CCCED1D4D7D9DCDFF3
:10392000E2E6E9ECF0F3F7FAFE0000004FEA400CA3
:103930000CF1807CBCF17E4F28BF7047B0F1C040D5
:1039400000F013B90CEAD11390EA010F48BF42F41A
:103950008072624538BF634507D213F47F0F16D0DB
:1039600080EA010000F00040704710B500F0B7F8A1
:10397000097EFC3E00F005B880EA010000F000403E
:10398000704780EA010000F0004000F0EEB812F449
:103990007F0F04BF0248704780EA010000F0E5B8DD
:1039A0000000C07F41000B0ED3F19E0208D950F4F5
:1039B00000034FEA032323FA02F048BF4042704756
:1039C00010B500F08CF800BF4992248000207047A9
:1039D0006FF0004282EA2000704700004FF47F0C35
:1039E0001CEAD0121EBF1CEAD11392EA0C0F93EA14
:1039F0000C0F00F0478090EA010F48BF42F480723C
:103A00004FF0004C4CEA00204CEA012102EB03028B
:103A1000A0FB0113A2F50002002918BF43F0010327
:103A20005B0028BF4FEA330342EB22425FEA132CCC
:103A30004CEBC2502EBFBCEB436FB2F57C0F70470E
:103A40004FEA036CBCF1004F08BF20F00100B2F553
:103A50007C0F38BF70470BD582F0FF0212F5803F14
:103A6000C8BF704700F1C040D8BF00F000407047A9
:103A700000F5000C5FEA4C0C48BF7047B0F1C04045
:103A800000F073B80CEAD11390EA010F48BF42F47A
:103A90008072624538BF634504D280EA010000F0BD
:103AA0000040704710B500F01AF800BF8900013ED1
:103AB00000F007B800F009B85FEA410C5FEA1C6C3F
:103AC00008D080EA010000F050B85FEA400C5FEADD
:103AD0001C6CF6D14FF00040A0F5800070470EF14D
:103AE000020E2EF0030E5EF8044B244204D44FEA7B
:103AF0004102B2F17F4F11D84FEA4003B3F17F4F3B
:103B00000CD80ED14FEAD07C0CEB4C0C0CF1020C13
:103B1000B2F17F4F08BF4CEBD17C04E04FF0080CB2
:103B200001E04FEAD17C0CEB4C0324FA03F404F0DF
:103B30000704B4F1040C06D20EEB840CBDE810406F
:103B40004CF0010C6047DFE80CF0070802024FF070
:103B50000040A0F5800010BD0846420018BFD2F119
:103B6000807288BF00F0004010BDFF2141EAD050B4
:103B7000C0057047010001000001000000000000C6
:103B800000127A0080000000000000000100000028
:103B900000127A000800000000000000020100008E
:103BA00000127A0080000000000000000300000006
:103BB00000127A0080000000000000000024014094
:103BC00000280140E83B0008000000203000000011
:103BD00028150008183C000830000020D00600001E
:103BE00044150008000000000000600000006000B4
:103BF0000001010001000000010000000C010000B4
:103C000000000000002C01400000004000040040C3
:103C10000008004000000000000000000000000064
:04000005080014EDEE
:00000001FF
